:100000000C949C020C94E3020C94E3020C94E30223
:100010000C94E3020C94E3020C94E3020C94E302CC
:100020000C94E3020C94E3020C94B51A0C94871B15
:100030000C9422140C94E3020C94E3020C94E3025B
:100040000C94E3020C94E3020C94E3020C94E3029C
:100050000C94E3020C948A140C94E3020C94E302D3
:100060000C94E3020C94E3020C94E3020C94E3027C
:100070000C94E3020C94E3020C94E3020C94E3026C
:100080000C94E3020C94E3020C94E3020C94E3025C
:100090000C94E3020C94E3020C94E3020C94E3024C
:1000A0000C94E3020C94E3020C94E30267036903EB
:1000B00074036B036D036F0371037303760378039B
:1000C0007A0385037C037E03800382038403870312
:1000D000C00AC00AF30AF30A320B770C770C770CCC
:1000E000520B770C020C020C680C770C770C710C1D
:1000F0000F0C0F0C0F0C0F0C0F0C0F0C0F0C0F0C28
:100100000F0C0F0C0F0C0F0C0F0C0F0C0F0C0F0C17
:100110001F0C2D0C340C3B0C450CF00CF00C020D9C
:10012000020DF90C020D020D020DF00CF00CFE0C8C
:10013000020D020DFE0CF41B161C041D161C041DE2
:100140005B1C7E1C041DD31CE61C01270227012713
:10015000022700290054005500560029001E001FE8
:100160000020002100220023002400250026002773
:10017000002D002A005F006000610057002B001472
:10018000001A000800150017001C0018000C0012CF
:1001900000130030004C005C005D005E002E00008B
:1001A0000004001600070009000A000B000D000EF5
:1001B000000F0033003400280059005A005B00286B
:1001C00000E1001D001B00060019000500110010D1
:1001D000003600370038005200E5000000620000E1
:1001E000306300E000E300E200000001512C002C2D
:1001F00000025100000351500051004F0001000166
:10020000000100010001003A003B003C003D0001FC
:1002100000010001000100010001000100010001D6
:1002200000010001000100010001000100010001C6
:1002300000010001000100010001000100010001B6
:1002400000010001000100010001000100010001A6
:100250000001000100010001000100010001000196
:100260000001000100010001000100010001000186
:10027000006800010001000100010001000100010F
:100280000001000100010001000100010001000166
:100290000001004E000100010001000100AA003F22
:1002A000004D0001000100010001000100010001FA
:1002B00000010001000100010001000100400041B7
:1002C0000042004300440001000100010001000160
:1002D0000001000100010001000100010001000116
:1002E00000010001000100450001000100010001C2
:1002F000000100005C01000100010001000100019B
:1003000000010001000100010001000100010001E5
:1003100000010001000100010001000100010001D5
:100320000001000100A800AC00AB000100010001C9
:10033000000100010001000100010001004B00016B
:1003400000010001000100A9003E004A0001000177
:100350000001000100010001000100010001000195
:100360000001000100010001000100010001000185
:100370000001000100010001000100010001000175
:100380000001000100010001004300440045006835
:1003900000690001000100010001000100010001ED
:1003A00000010001000100010001006A006B006C07
:1003B000006D006E0001000100010001000100015C
:1003C000000100010001000100010001006F007048
:1003D00000710072007300010001000100010001C2
:1003E0000001000100010001000100010001000105
:1003F000000100010001000100010012034C006136
:10040000007300650072002D003800350000000EFA
:100410000353007000610072006B0079000000045B
:1004200003090409025400030100A0FA09040000B2
:10043000010301010009211101000122400007050B
:10044000810308000A0904010001030000000921DA
:10045000110100012236000705820308000A090481
:1004600002000103000000092111010001223900EE
:100470000705830320000112011001000000083964
:1004800017391701000102000105010906A1010544
:100490000719E029E7150025019508750181020576
:1004A00008190129059505750191029501750391BA
:1004B000010507190029F71500250195F875018137
:1004C00002C005010980A101850216010026030072
:1004D0001A81002A8300751095018100C0050C095E
:1004E00001A1018503160100269C021A01002A9C25
:1004F00002751095018100C005010906A1010507DB
:1005000019E029E71500250195087501810295017B
:1005100075088101050819012905950575019102E4
:100520009501750391010507190029FF150026FFA4
:1005300000950675088100C011241FBECFEFDAE0D8
:10054000DEBFCDBF04B603FE27C08091610290914B
:100550006202A0916302B09164028730904BA74081
:10056000B04BD1F4109261021092620210926302B9
:100570001092640214BE84B7877F84BF0FB6F894CC
:10058000A89580916000886180936000109260005F
:100590000FBEE0E0F8E3099511E0A0E0B1E0ECEE79
:1005A000FAE302C005900D92A233B107D9F722E019
:1005B000A2E3B1E001C01D92A136B207E1F70E94AB
:1005C000E4170C94741D0C940000611107C0FC0129
:1005D0008281882319F08AE491E0089580E090E018
:1005E00008950895089581E00895089581E008959B
:1005F0000C94F3020E94DE0C2FEF84E39CE0215068
:1006000080409040E1F700C000000C94B014FF92CD
:100610000F931F93CF93DF938C01FC01C081D18195
:1006200080918C01811113C08281882349F0CE0111
:100630000E94FD11F82E682FCE010E94A21104C065
:10064000CE010E94D111F82EBE018F2D04C0CE0123
:100650000E94FD11BE010E943904EC01B8010E9404
:10066000F802882309F4F5C0B801CE010E945F06A4
:10067000882309F4EEC0C531FCE5DF0708F07EC031
:10068000C2308CE5D80708F452C0F8018281882373
:1006900009F459C00E94B113811102C00E9497133E
:1006A0000E94CE1390E09093530280935202FE0179
:1006B000E350FC45E231F10530F4EA5AFF4F8091F6
:1006C00052020C94381D80915202816027C08260D2
:1006D00025C0846023C0806121C080621FC0806407
:1006E0001DC080681BC08460886018C08E7F16C0E3
:1006F0008D7F14C08B7F12C08F7E10C08F7D0EC087
:100700008F7B0CC08F770AC08B7F877F07C087FBEA
:10071000222720F991E0922790FB87F980935202DB
:10072000809152020E94D2130E94DE0C92C0C11529
:10073000ECE5DE0781F0C130DC45A9F081E0809373
:10074000360180933701C801DF91CF911F910F913E
:10075000FF900C94F602F8018281882309F479C095
:100760000E94FA0276C0F8018281882309F471C0E0
:10077000809129028160809329026BC0C73C8CE57F
:10078000D80739F5F8018281882361F0109237018A
:100790000E945414909335018093340180E20E94AA
:1007A0007B0A57C08091370181110FC080913401BD
:1007B000909135010E946014883C910530F487E2E5
:1007C0000E94640987E20E942C0A80E20E94820A49
:1007D00040C0C83CECE5DE0738F5C63CDC4509F016
:1007E000ADCFF8018281882351F0109236010E942A
:1007F0005414909333018093320182E0D0CF8091E2
:10080000360181110FC080913201909133010E9415
:100810006014883C910530F486E20E94640986E207
:100820000E942C0A82E0D2CFCA3C8CE5D80731F472
:10083000F8018281882369F080E009C0CB3CDC4567
:1008400009F07CCFF8018281882319F082E00E94B0
:10085000781880E0DF91CF911F910F91FF9008955C
:100860000C94AE060C94B0060C94F5020C9434046F
:10087000089591E1799FF001112495E5899FE00D9C
:10088000F11D1124E60FF11DEE0FFF1FED5AFE4F73
:10089000859194910895880F991FFC01E550FC4FB4
:1008A0008591949108950E9439040E94E105811573
:1008B00020E49207B0F5811540E3940708F0DBC00F
:1008C000803E9105D8F4803C910508F069C0883AD3
:1008D000910578F4853A910508F065C0813091055D
:1008E00009F46EC108F425C18430910508F068C18F
:1008F00020C18D3B910508F461C01BC18F3F91055C
:1009000009F048F4803F910508F0AFC0883E91059A
:1009100008F456C10EC1811560E2960708F0A7C021
:100920000895811574E59707D8F4811523E592079A
:1009300008F0DDC0811541E5940740F4811560E5BC
:10094000960708F0A2C09F70906A0895811572E51D
:10095000970708F0B6C0982F8827816F906A08958E
:10096000811526E5920750F4811545E5940708F0B6
:10097000D4C0982F8827846F906A0895811568E500
:10098000960708F4D6C0811579E5970708F4CAC020
:100990009C0130562115304208F0CBC09F71C7C072
:1009A000805C910965C0853A910509F4C5C0863A15
:1009B000910509F0C4C082E890E40895883A910551
:1009C00009F4C0C0893A910509F4BFC08A3A91057B
:1009D00009F4BEC08B3A910509F4BDC08C3A91056B
:1009E00009F4BCC08B3B910509F4BBC08C3B91055D
:1009F00009F4BAC08D3A910509F4B9C0803B91055C
:100A000009F4B8C08E3A910509F4B7C08F3A910540
:100A100009F4B6C0813B910509F4B5C0823B91054C
:100A200009F4B4C0833B910509F4B3C0843B91053C
:100A300009F4B2C0853B910509F4B1C0863B91052C
:100A400009F4B0C0873B910509F4AFC0883B91051C
:100A500009F4AEC0893B910509F4ADC08A3B91050C
:100A600009F4ACC080E094E40895906508959F7007
:100A70000E944B0408959C01332793FF03C0C901D2
:100A8000986C0895C901906C0895482F437021E037
:100A900030E002C0220F331F4A95E2F73C68AC01F8
:100AA00064E0569547956A95E1F74370342B8F7053
:100AB0008695869560E2869FC0011124822B932B38
:100AC0000895482F4695469570E2479FA00111244E
:100AD0008370992721E030E0B90102C0660F771FCB
:100AE0008A95E2F7CB01842B952B9C680895482FBB
:100AF0004695469570E2479FA0011124837099277F
:100B000021E030E0B90102C0660F771F8A95E2F755
:100B1000CB01842B952B9A6808958F719927982F74
:100B2000882705C0982F8827806F906A0895906263
:100B3000089580E090E0089581E890E4089583E8C6
:100B400090E4089582EE94E4089589EE94E4089583
:100B50008AEE94E4089585EB94E4089586EB94E49A
:100B6000089583EB94E4089584EB94E4089587EB6F
:100B700094E408958CEC94E408958DEC94E4089545
:100B800083E895E408958AE895E4089582E995E478
:100B9000089584E995E4089581E296E4089583E256
:100BA00096E4089584E296E4089585E296E4089533
:100BB00086E296E4089587E296E408958AE296E450
:100BC00008958238910549F1B0F48133910509F413
:100BD00058C048F48932910509F44EC08A32910513
:100BE00009F454C008958533910509F440C0893350
:100BF000910599F00895833E910529F138F4803EDE
:100C0000910591F0823E9105A1F00895863E9105EF
:100C1000F9F0873E910531F108952091520220FDAF
:100C20003AC021FD38C008958091520280FD35C040
:100C300032C08091520282FF32C08091520284FD04
:100C400030C083EE39C08091520282FD28C0F5CFBA
:100C50008091520283FF27C08091520284FD21C0FF
:100C600087EE2AC08091520283FD1DC0F5CF80918E
:100C7000520285FD1AC01BC08091520285FD17C02B
:100C800014C08091520286FD14C015C0809152029A
:100C900086FD11C00EC080EE0FC089E30DC082EE4C
:100CA0000BC080E009C086EE07C089E205C085E37D
:100CB00003C08AE201C081E390E0089508950F9394
:100CC0001F93CF93FB012281211102C0C1E041C0DB
:100CD0008C01C0914501C11125C085319C45B1F7FA
:100CE0000E945E0681E0809345010E945414909317
:100CF0004401809343011092380110923A011092FE
:100D0000390110923C0110923B0110923E01109269
:100D10003D011092400110923F0110924201109249
:100D2000410117C080914301909144010E946014D9
:100D3000883C910558F690913801E92FF0E0EE0FCC
:100D4000FF1FE75CFE4F118300839F5F9093380184
:100D5000C0E08C2FCF911F910F9108950C94F10258
:100D60000C94F20285B7806885BF85B7806885BF1F
:100D7000AEE1B1E041E050E025E02A0F8D91E82F8F
:100D8000E295EF70F0E031A18F70BA0102C0660FFA
:100D9000771F8A95E2F7CB01962F9095932391A325
:100DA00092A1892B82A32A13E9CFADE0B1E041E003
:100DB00050E021E12A0F8D91E82FE295EF70F0E0ED
:100DC00031A18F70BA0102C0660F771F8A95E2F7D2
:100DD000CB01962F9095932391A392A1892B82A367
:100DE0002A13E9CFEAE5F1E0A6E4B1E0119211920D
:100DF000119211921D921D921D921D9271E0EE367C
:100E0000F707A1F70C9430042F923F924F925F9214
:100E10006F927F928F929F92AF92BF92CF92DF920A
:100E2000EF92FF920F931F93CF93DF93CDB7DEB76F
:100E30002B970FB6F894DEBF0FBECDBF2EE131E089
:100E40003E832D8306E411E01A87098766246394A4
:100E5000712CC12CD12C7601C39429853A85388711
:100E60002F83D9012D903D904D905C90F901108217
:100E7000118212821382AD81BE818D91BE83AD83BA
:100E8000E82FE295EF70F0E091A18F70930102C01E
:100E9000220F331F8A95E2F73A832983822F892B09
:100EA00081A392A120952B87922392A330EA3A95B1
:100EB000F1F78DE091E09C838B8320E030E0AB8103
:100EC000BC819D91BC83AB83A92FA295AF70B0E08C
:100ED00090967C91A985BA858D909D90AD90BC909F
:100EE0009F70A30101C0440F9A95EAF7472369F464
:100EF000D701C601022E04C0880F991FAA1FBB1F6D
:100F00000A94D2F7AC01BD0103C040E050E0BA0141
:100F1000842A952AA62AB72AA985BA858D929D92F8
:100F2000AD92BC9213972F5F3F4F2131310539F6B7
:100F300091A18B85892381A382A1B9818B2B82A367
:100F400029853A852C5F3F4F3A872987EF81F885BD
:100F500080819181A281B381281639064A065B06F9
:100F600049F0F1E0F0936E010E94541490937001E7
:100F700080936F0129853A852A55314009F06DCF5C
:100F800080916E018823E1F080916F019091700152
:100F90000E9460140697A0F02AE531E0F8018191E3
:100FA0009191A191B1918F01F90181939193A193B5
:100FB000B1939F01F1E00A351F0781F710926E018E
:100FC0000E94320481E02B960FB6F894DEBF0FBE6C
:100FD000CDBFDF91CF911F910F91FF90EF90DF90E8
:100FE000CF90BF90AF909F908F907F906F905F90C9
:100FF0004F903F902F90089524E0829FC0011124CC
:10100000FC01E65AFE4F60817181828193810895CF
:10101000089590937601809375010895E09175018C
:10102000F0917601309721F00190F081E02D099444
:1010300080E00895E0917501F0917601309721F0FC
:101040000280F381E02D099408952091730130917D
:1010500074018217930771F0909374018093730168
:10106000E0917501F0917601309721F00680F781CB
:10107000E02D099408952091710130917201821739
:10108000930771F09093720180937101E091750163
:10109000F0917601309721F00084F185E02D0994DC
:1010A000089508950C9451080E944B140E94B206B2
:1010B0000C941D154F925F926F927F929F92AF9208
:1010C000BF92CF92DF92EF92FF920F931F93CF9335
:1010D000DF93CDB7DEB72E970FB6F894DEBF0FBE05
:1010E000CDBF0E94040748E7A42E41E0B42E00E0E3
:1010F00010E0902E802F0E94FC07F501C190D19046
:10110000E190F1905F01C626D726E826F926C114A2
:10111000D104E104F104B1F40F5F1F4F0530110554
:1011200041F78FEF89838A831B820E945414816068
:10113000782F9D838C8349815A816B818D810E9498
:1011400036095DC02091290221FF0AC06B877C8788
:101150008D879E870E9408089E858D857C856B857E
:1011600040E050E026013701042E04C076946794D5
:10117000579447940A94D2F740FE3AC04E839F8218
:10118000C12CD12C7601C39404C0CC0CDD1CEE1C08
:10119000FF1C4A95D2F726013701462257226822C2
:1011A000792281E045284628472809F480E088878D
:1011B0000E9454148160782F9A8789874E815F81BD
:1011C00068858A850E943609000F111F000F111FC4
:1011D000F801E858FE4F80819181A281B381C82631
:1011E000D926EA26FB26C082D182E282F38207C09A
:1011F0004F5F5F4F4131510509F0B4CF8DCF109152
:1012000077010E940E081817D9F00E940E088093EB
:1012100077012E960FB6F894DEBF0FBECDBFDF91DB
:10122000CF911F910F91FF90EF90DF90CF90BF90E3
:10123000AF909F907F906F905F904F900C9436048A
:101240002E960FB6F894DEBF0FBECDBFDF91CF91C3
:101250001F910F91FF90EF90DF90CF90BF90AF90D4
:101260009F907F906F905F904F900895CF93DF9302
:10127000CDB7DEB72B970FB6F894DEBF0FBECDBF4C
:101280004F83588769877A878B87DE01119686E0BE
:10129000FD0111928A95E9F785E0FE0137960190EC
:1012A0000D928A95E1F749815A816B817C818D810C
:1012B0009E810E94760F2B960FB6F894DEBF0FBE6C
:1012C000CDBFDF91CF910895882309F4C4C082383F
:1012D00059F40E940E0881FDBEC089E30E949B1252
:1012E0000E94681389E30CC0833871F40E940E08D1
:1012F00080FDB1C083E50E949B120E94681383E5C4
:101300000E94DD120C946813843859F40E940E0870
:1013100082FDA1C087E40E949B120E94681387E4AB
:10132000EFCF9CEF980F913A18F40E949B12EACFEE
:1013300090E2980F983050F4877091E001C0990FB7
:101340008A95EAF7892F0E942113DCCF9BE5980F3D
:10135000933070F4853A29F0863A31F083E890E0D2
:1013600005C081E890E002C082E890E00C94250876
:1013700098E5980F953108F06EC0883A61F1893A86
:1013800069F18A3A71F18B3A79F18C3A81F18B3BB0
:1013900089F18C3B91F18D3A99F1803BA1F18E3A24
:1013A000A9F18F3AB1F1813BB9F1823BC1F1833BA5
:1013B000C9F1843BD1F1853BD9F1863BE1F1873B13
:1013C000E9F1883BF1F1893BF9F18A3B09F43FC02F
:1013D00080E090E03EC082EE90E03BC089EE90E07D
:1013E00038C08AEE90E035C085EB90E032C086EBE5
:1013F00090E02FC083EB90E02CC084EB90E029C0FC
:1014000087EB90E026C08CEC90E023C08DEC90E060
:1014100020C083E891E01DC08AE891E01AC082E90B
:1014200091E017C084E991E014C081E292E011C01C
:1014300083E292E00EC084E292E00BC085E292E08B
:1014400008C086E292E005C087E292E002C08AE22C
:1014500092E00C943B080895882309F44BC082382D
:1014600059F40E940E0881FF45C089E30E949B1237
:101470000E94681389E30CC0833871F40E940E083F
:1014800080FF38C083E50E949B120E94681383E5A9
:101490000E94DD120C946813843859F40E940E08DF
:1014A00082FF28C087E40E949B120E94681387E491
:1014B000EFCF9CEF980F913A58F390E2980F983045
:1014C00050F4877091E001C0990F8A95EAF7892F4F
:1014D0000E942713DFCF9BE5980F933020F480E024
:1014E00090E00C942508885A853120F480E090E043
:1014F0000C943B080895882321F00E9421130C943A
:1015000068130895882321F00E9427130C94681310
:1015100008957F928F929F92AF92BF92CF92DF9267
:10152000EF92FF920F931F93CF93DF931F92CDB74C
:10153000DEB77C01C62E772EFC01058102950F7067
:10154000128111110E943E130E949412882379F097
:10155000112369F080E28C0D883048F082E00E940F
:101560007D120E94941291E0D82ED92601C0D12C70
:10157000E72DE295EF70F0E0E859FF4F0C94381D2D
:10158000872D807F072D0F70882311F00295007F33
:10159000112399F0002309F491C180E28C0D883069
:1015A00010F0C11004C0802F0E94211303C0802FAF
:1015B0000E9431130E94681381C18C2D0E942C0A55
:1015C000002309F494C180E28C0D883010F0C11022
:1015D00004C0802F0E94271303C0802F0E9437135E
:1015E0000E94681384C1872D807F972D9F70803261
:1015F00011F4892F03C0892F8295807FCC2021F0A0
:10160000F1E0CF16A1F01DC0112339F0002319F12C
:10161000013009F50E9451136AC1002319F001300D
:1016200009F465C189830E945413898105C111237E
:1016300021F0063008F05BC10EC0053008F057C13C
:10164000FBC0112359F0002331F0F701958190FF81
:1016500035C19F7095830E947B0A49C1002309F41C
:10166000EBC032C1872D86958695837090E00097F8
:1016700019F0019761F03BC1112321F08C2D972DBA
:10168000937002C080E090E00E94250830C11123D1
:1016900021F08C2D972D937002C080E090E00E9485
:1016A0003B0825C1872D837009F052C011111FC15D
:1016B0008C2D829586958770880F880F9C2D9F7042
:1016C000892E912CA12CB12C082E04C0880C991CB9
:1016D000AA1CBB1C0A94D2F7C4FE14C00FE010E091
:1016E00020E030E0B901A80104C0440F551F661F77
:1016F000771F8A95D2F7CB01BA01609570958095D6
:10170000909503C060E070E0CB01272D26952695CB
:10171000237030E02230310569F02330310589F043
:10172000682979298A299B292130310571F00E9485
:10173000B910DDC0682979298A299B290E94CB101C
:10174000D6C00E94B910C501B4010E94A710CFC035
:10175000112319F0872D817001C08695882309F423
:10176000C6C08C2D829586958770880F880F9C2D1A
:101770009F70892E912CA12CB12C082E04C0880CAE
:10178000991CAA1CBB1C0A94D2F7C4FE14C00FE01B
:1017900010E020E030E0B901A80104C0440F551F5B
:1017A000661F771F8A95D2F7CB01BA0160957095B5
:1017B0008095909503C060E070E0CB01272D2695C1
:1017C00026952370422F50E04230510569F0433096
:1017D000510589F0682979298A299B2941305105C9
:1017E00071F00E947D1183C0682979298A299B297B
:1017F0000E948F117CC00E947D11C501B4010E941E
:101800006B1175C08C2D90E0FC01E05EF109E531B3
:10181000F10508F04FC0E858FF4F0C94381D0C2D0F
:101820000F70872D8F71112321F00E940411802FDA
:1018300012CF0E942511802F0E94820A58C01123C6
:1018400041F0053008F053C0872D8F710E944A1176
:101850004EC0063008F04BC0F7CF112339F0872D6A
:101860008F710E94041143C01123C9F3872D8F711A
:101870000E9425113CC0112329F0872D8F710E94F1
:10188000EF1035C00E94EA1032C0112351F0172D1D
:101890001F71812F0E94041163E0812F0E94741236
:1018A00026C081E00E947D12023008F182E00E9491
:1018B0007D121DC0112331F0002389F28C2D0E946E
:1018C000640915C0002391F28C2D0E942C0A0FC0D0
:1018D000472D4F706C2DC7010E94E5020E941A101F
:1018E00006C0472D4F706C2DC7010E943804DD20C3
:1018F000F9F00E94701280FD1BC0F70112820E9455
:101900006A120E940411C7010E94A70C0E946A1269
:101910000F90DF91CF911F910F91FF90EF90DF908B
:10192000CF90BF90AF909F908F907F900C94251197
:101930000F90DF91CF911F910F91FF90EF90DF906B
:10194000CF90BF90AF909F908F907F9008950F930E
:101950001F93CF93DF93EC01888199812B813C8188
:10196000232BB9F09F3F11F48F3F99F0CE010E94D5
:101970000703882371F0688179818A810E94471268
:101980008C010E94A1110E94A410B801CE010E94F6
:10199000890ADF91CF911F910F9108950E943E1304
:1019A0000E944E130E9413130E94681380E090E07F
:1019B0000E94250880E090E00C943B080E942E13C2
:1019C0000C94CE0C0E943C12E92FE295EF70F0E0EF
:1019D0003297EE30F105B0F4E357FF4F0C94381D09
:1019E000803F91F018F4803E68F40EC0843F51F4BB
:1019F0000BC0803E48F0813F29F406C093FB882746
:101A000080F9089580E0089581E00895CF93DF93F1
:101A100000D000D01F92CDB7DEB70F900F900F907F
:101A20000F900F90DF91CF910895CF93DF9300D067
:101A300000D000D0CDB7DEB726960FB6F894DEBF43
:101A40000FBECDBFDF91CF9108951F93CF93DF934A
:101A5000C0918D0116E080918E01C81799F0D0E0F9
:101A60001C9FF0011D9FF00D1124E157FE4F408196
:101A7000518162817381848195810E94150D219627
:101A8000C770E9CFDF91CF911F9108954091BF01B9
:101A90005091C0016091C1017091C2018091C30158
:101AA0009091C4010C94150D8091C40182958F70A2
:101AB00009F054C08091C101882309F44FC080917E
:101AC0008D01A0918E016091BF017091C001409184
:101AD000C2015091C301B6E08A1709F43FC090E0FB
:101AE00041155105C1F17F3F11F46F3FA1F1B89F3E
:101AF000F001B99FF00D1124E157FE4F21817213BF
:101B00002AC02081621327C02281211124C0238191
:101B100034812417350710F421503109241B350B6B
:101B2000283C3105C0F42091C4012F70206120931E
:101B3000C40126E0289FF001299FF00D1124EC56E6
:101B4000FE4F80818F70806180838FEB91E00E94D7
:101B5000A70C0C94250D01968770BECF0895CF92E7
:101B6000DF92EF92FF920F931F93CF93DF93CDB746
:101B7000DEB762970FB6F894DEBF0FBECDBF8C0103
:101B800085E0F801DE011D9601900D928A95E1F73E
:101B9000D8014C9111965C91119712966C91129705
:101BA0001396CD90DC9014973091BF017091C001D5
:101BB0008091C2019091C301009709F46BC17F3FEE
:101BC00019F43F3F09F466C1E090C101EE2009F429
:101BD000C0C02091C401C816D90628F0F601E81B40
:101BE000F90BCF0104C0809590958C0D9D1DFF24AD
:101BF000F394883C910578F0F12C207F09F0C6C061
:101C00007C2DD98AC88A89890E94060D8FEB91E0C4
:101C10000E94A70CB1C0822F807F09F046C07513C7
:101C200014C0341312C0611110C02F7020612093B2
:101C3000C4010E94460D8FEB91E00E94A70C809199
:101C4000C401D80115968C932EC0CD2819F15F3FA1
:101C500011F44F3FF9F0F62E61111CC080918D01F7
:101C600020918E0136E0821709F45AC090E0389F27
:101C7000F001399FF00D1124E157FE4F7181571388
:101C800006C07081471303C07281711103C00196B1
:101C90008770E9CFF62E662309F418C18091C4013C
:101CA00081608093C401F12C11C1751308C03413F5
:101CB00006C0611104C08091C401D801C3C04D8722
:101CC0005E878D859E856A8B0E94E20C6A898823D7
:101CD000E1F16623D1F12091C401822F82958F70AA
:101CE00090E0029774F08091BF019091C0019887B5
:101CF0008F831986DB86CA862C87CE0107960E94C1
:101D0000A70C86E0F801AFEBB1E001900D928A9547
:101D1000E1F70E94540D0E94460DFF24F394D6C0B3
:101D20004D875E878D859E850E943C12292F2295C6
:101D30002F7030E0223031050CF0BCC09F7009F0EC
:101D4000B6C0805E883008F4C1C0C8010E94A70CEC
:101D5000E4CFC816D90608F453C0F601E81BF90B06
:101D6000CF01883C910508F450C0F12C7C2DD98A14
:101D7000C88A89890E94060DEFEBF1E086E0DF0159
:101D80001D928A95E9F70E94460DA0C0751314C0F4
:101D9000341312C0611110C08091C401F801858311
:101DA000C8010E94A70C86E0EFEBF1E0DF011D9275
:101DB0008A95E9F7FE2C8AC04D875E878D859E85C2
:101DC0006A8B0E94E20C6A89882309F4BECF6623DD
:101DD00009F4BBCF2091C401822F82958F7090E0CF
:101DE00002970CF48ECF8091BF019091C0019A832D
:101DF00089831B82DD82CC822E83CE0101967FCF28
:101E0000809590958C0D9D1DACCFF62E662309F420
:101E10009CCF75132EC034132CC02091C40120FD1B
:101E20001FC0822F82958F70D9F0D80115962C9300
:101E300015978F3049F08F5F982F9295907F822F62
:101E40008F70892B15968C93C8010E94A70C86E091
:101E5000F801AFEBB1E001900D928A95E1F793CFD5
:101E600086E0F801AFEBB1E001900D928A95E1F7C1
:101E70002DC04D875E878D859E850E94E20C811165
:101E800040CF8091C40181608093C401C8010E9449
:101E9000A70C1CC0662309F458CF4D875E878D853B
:101EA0009E850E94E20C882309F44FCF2ACF81112E
:101EB00048CF0CC0243031050CF047CF9F7009F497
:101EC00040CFF8019581907F09F03BCF8F2D62962E
:101ED0000FB6F894DEBF0FBECDBFDF91CF911F913B
:101EE0000F91FF90EF90DF90CF9008951F93CF93C5
:101EF000DF93CDB7DEB72C970FB6F894DEBF0FBED9
:101F0000CDBF4F83588769877A878B879C87CE019F
:101F100007960E94AF0D882369F08F8198852A85E6
:101F20003B85232BF1F19F3F09F063C08F3F09F000
:101F300060C037C086E0FE013796DE011196019041
:101F40000D928A95E1F76F817885EA85FB85309758
:101F500041F17F3F11F46F3F21F120918E0130E07C
:101F6000C90101968770992740918D0150E084172F
:101F7000950709F447C069837A83FD83EC8396E073
:101F8000929FD001939FB00D1124A157BE4FFE0127
:101F9000319601900D929A95E1F780938E010E94FF
:101FA000250D16E080918D0190918E018917C1F168
:101FB000189FC001112481579E4F0E94AF0D8823A6
:101FC00079F1E0918D011E9FF0011124E157FE4F40
:101FD0004081518162817381848195810E94150DB8
:101FE00080918D0190E001968770992780938D01F3
:101FF000D9CF4F81588569857A858B859C850E94CC
:10200000150DCFCF0E94DE0C10928E0110928D0123
:10201000EFEBF1E086E0DF011D928A95E9F7C1CF91
:102020002C960FB6F894DEBF0FBECDBFDF91CF91D7
:102030001F910895EF92FF920F931F93CF93DF9319
:102040008C01892B09F46CC0F12CEE24E394E80197
:102050002196F8018491843740F4843008F051C00F
:10206000813081F0823019F15BC0853709F444C0BA
:10207000A8F19CE7980F903708F052C08F770E9424
:102080002C0A41C00E5F1F4FFE01C49180E28C0FED
:10209000883048F4C7708E2D01C0880FCA95EAF7C2
:1020A0000E94411314C08C2F0E9464092DC00E5F42
:1020B0001F4FFE01C49180E28C0F883058F4C77026
:1020C0008E2D01C0880FCA95EAF70E9447130E941F
:1020D00068131AC08C2F0E942C0A16C00E5F1F4F67
:1020E000FE01C491CC2381F08FE99FE00197F1F7C5
:1020F00000C00000C150F6CF0E5F1F4FFE01F490EC
:1021000003C00E9464098E018F2D882309F49FCF9C
:10211000EFE9FFE03197F1F700C000008150F5CF03
:10212000DF91CF911F910F91FF90EF900895089547
:102130000E94971060930002709301028093020244
:10214000909303020C94CE0C08950C9498100F9366
:102150001F93009100021091010220910202309120
:102160000302602B712B822B932B1F910F910C94E8
:1021700098100F931F93009100021091010220917B
:1021800002023091030260237123822393231F9163
:102190000F910C9498100F931F93009100021091CF
:1021A00001022091020230910302602771278227E9
:1021B00093271F910F910C94981008950E94DD10A1
:1021C0006093FC017093FD018093FE019093FF01E9
:1021D0000C94CE0C60E070E0CB010C94DE100F93F9
:1021E0001F9341E050E060E070E08A019B0104C071
:1021F000000F111F221F331F8A95D2F7C901B801A2
:102200001F910F910C94DE100F931F9341E050E04B
:1022100060E070E004C0440F551F661F771F8A9569
:10222000D2F78091FC019091FD01A091FE01B09147
:10223000FF018A019B01082B192B2A2B3B2BC9017B
:10224000B8011F910F910C94DE100F931F9341E082
:1022500050E060E070E004C0440F551F661F771F18
:102260008A95D2F740955095609570958091FC01C4
:102270009091FD01A091FE01B091FF018A019B01A7
:10228000082319232A233B23C901B8011F910F9169
:102290000C94DE100F931F9341E050E060E070E07B
:1022A00004C0440F551F661F771F8A95D2F780918F
:1022B000FC019091FD01A091FE01B091FF018A0106
:1022C0009B01082719272A273B27C901B8011F911D
:1022D0000F910C94DE100F931F930091FC0110914D
:1022E000FD012091FE013091FF01602B712B822BAB
:1022F000932B1F910F910C94DE100F931F9300915D
:10230000FC011091FD012091FE013091FF0160233D
:102310007123822393231F910F910C94DE100F934E
:102320001F930091FC011091FD012091FE0130915D
:10233000FF0160277127822793271F910F910C942B
:10234000DE10089521E1929F800D1124A82FA695FB
:10235000A695A695877051E001C0550F8A95EAF7BA
:1023600085E0A89FD001112420E030E070E0F90161
:10237000EA0FFB1FEB53FE4F4081CB01022E02C040
:10238000969587950A94E2F781709927819584271D
:102390008523842780832F5F3F4F2530310539F710
:1023A000089521E1929F800D1124682F669566950E
:1023B0006695982F977085E0689FB001112440E0E2
:1023C00050E080E0FA01E60FF71FEB53FE4F20814B
:1023D00030E0092E02C0369527950A94E2F7217065
:1023E0003327042E01C0220F0A94EAF7822B4F5F95
:1023F0005F4F4530510531F70895CF92DF92EF924C
:10240000FF920F931F93CF93DF938C01C090000234
:10241000D0900102E0900202F09003028091FC0152
:102420009091FD01A091FE01B091FF01C82AD92A27
:10243000EA2AFB2ACFE1D0E0D701C6010C2E04C066
:10244000B695A795979587950A94D2F780FF06C011
:10245000B8018C2F0E945304019721F4219760F753
:1024600080E001C08C2FDF91CF911F910F91FF90E1
:10247000EF90DF90CF900895CF93DF93EC010E940F
:10248000FD11BE010E945304DF91CF9108951F9367
:10249000CF93DF93EB0190918C01992321F0CB0135
:1024A0000E943C1213C0882349F0CB010E94FD1109
:1024B000182F682FCE010E94A21104C0CB010E94E8
:1024C000D111182FBE01812F0E945304DF91CF91AB
:1024D0001F910895809104028595859585950895AD
:1024E000809104028770089598E0899F90011124DB
:1024F000262B209304020C94041120910402809551
:10250000822380930402982F977069F430E0482F5B
:10251000082E000C550B2417350729F08595859555
:1025200085950C942511089590910402977081E08F
:1025300009F480E0089590910C01992321F0909185
:10254000520297FD09C02091000130910101F9016B
:1025500032969FEF40E01FC0982F969596959695DE
:102560009F3150F5E0910001F0910101E90FF11D5B
:10257000877021E030E0A90102C0440F551F8A9501
:10258000E2F7CA019181892B818308959F3F39F039
:102590004F5F4E3141F051915813F8CF0DC051119A
:1025A000F7CF942FF5CF9F3F39F0F901E90FF11DD7
:1025B00097FDFA9582830895089590910C019923CF
:1025C00021F09091520297FD09C0209100013091B5
:1025D0000101F9013296205E3F4F1FC0982F96955A
:1025E000969596959F31F0F4E0910001F0910101EC
:1025F000E90FF11D877021E030E0A90102C0440F0E
:10260000551F8A95E2F7CA018095918189238183BC
:1026100008953196E217F30729F090819813F9CFC6
:102620001082F7CF089581E090E0E0910001F091F1
:102630000101E80FF91F1082019680329105A9F778
:10264000089590912802892B8093280208958095FF
:1026500090912802892380932802089510922802DD
:10266000089590912702892B8093270208958095E1
:1026700090912702892380932702089510922702C0
:10268000089590912602892B8093260208958095C3
:1026900090912602892380932602089510922602A3
:1026A000089580930502089510920502089580917F
:1026B000000190910101FC0131969C01205E3F4F89
:1026C00080E0919191118F5FE217F307D1F70895A0
:1026D000E0910001F0910101809128028083E09156
:1026E0000001F0910101908180912702892B808364
:1026F000E0910001F0910101908180912602892BE7
:10270000808380910502882361F0E0910001F091BF
:1027100001019081892B80830E94571381111092AF
:10272000050280910001909101010C941A086DEE50
:102730007EEF80E090E00E945E1D60E082E090E02D
:102740000E944C1D60E083E090E00E944C1D60E020
:1027500084E090E00E944C1D60E085E090E00C94E5
:102760004C1D80E090E00E94461D21E08D3E9E4F72
:1027700009F020E0822F089582E090E00C943E1D45
:10278000682F82E090E00C944C1D83E090E00C9464
:102790003E1D682F83E090E00C944C1D84E090E097
:1027A0000C943E1D682F84E090E00C944C1D8091A9
:1027B0005802843039F110922A0220E488E190E036
:1027C0000FB6F894A895809360000FBE2093600028
:1027D00080E00E94360483B7817F846083BF83B723
:1027E000816083BF7894889583B78E7F83BF0FB64F
:1027F000F894A895809160008861809360001092A1
:1028000060000FBE089508950895CF930E940314A9
:102810000E9404070E940414C0E08C2F0E94FC0751
:10282000672B682B692B29F4CF5FC530B1F780E0A7
:1028300001C081E0CF9108950E94DE0C0E940E0835
:102840000C9436041F920F920FB60F9211248F939F
:102850009F93AF93BF9380912A02811113C08091FF
:102860004E0290914F02A0915002B09151024196B8
:10287000A11DB11D80934E0290934F02A093500270
:10288000B0935102BF91AF919F918F910F900FBE66
:102890000F901F90189582E084BD93E095BD9AEF4C
:1028A00097BD80936E0008952FB7F89480914E02E3
:1028B00090914F02A0915002B09151022FBF089504
:1028C000CF92DF92EF92FF920F931F932FB7F8945E
:1028D00040914E0250914F0260915002709151020E
:1028E0002FBF6A017B01EE24FF248C0120E030E041
:1028F000C016D106E206F30610F4415051099A01C0
:10290000281B390BC9011F910F91FF90EF90DF90A9
:10291000CF90089578941F920F920FB60F921124C2
:102920008F939F93AF93BF9380914E0290914F02EC
:10293000A0915002B09151020196A11DB11D80934A
:102940004E0290934F02A0935002B0935102BF9158
:10295000AF919F918F910F900FBE0F901F90189580
:102960000E943A1AF8942FEF87EA91E621508040AE
:102970009040E1F700C0000087E090EBDC0180931D
:10298000610290936202A0936302B09364029CE0A0
:1029900088E10FB6F894A895809360000FBE9093DD
:1029A0006000FFCF8F929F92AF92BF92EF92FF9203
:1029B0000F931F93CF93C0E0E82EF12C8C2F0E9431
:1029C000FC074B015C0100E010E0D501C401002EC2
:1029D00004C0B695A795979587950A94D2F780FD80
:1029E00006C00F5F1F4F0131110579F70AC0602F34
:1029F0007C2F80E00E943904E816F90691F781E007
:102A000004C0CF5FC530D1F680E0CF911F910F9108
:102A1000FF90EF90BF90AF909F908F900895CF93CD
:102A2000C82F8CE20E94D214882321F08C2FCF91E2
:102A30000C94D21480E0CF910895CF930E94B113EB
:102A4000811102C00E949713C5E6C15049F00E944F
:102A500004078FE39CE90197F1F700C00000F5CF70
:102A600089E20E940F1581110FC18AE20E940F15A1
:102A700081110E94971385E00E940F1581110E9419
:102A8000B0140E94BC138093290287E00E940F15A6
:102A90008823A9F18BE10E940F15882351F08091C2
:102AA000290281FB222720F991E0922790FB81F9EE
:102AB0000EC08EE00E940F15882361F080912902DC
:102AC00082FB222720F991E0922790FB82F98093E4
:102AD000290215C080E10E940F15909129028823D8
:102AE00041F093FB222720F981E0822780FB93F9B4
:102AF00004C0892F809580FB90F9909329028091E2
:102B000029020E94C0130E94CE1390E090935302BA
:102B10008093520280EE0E940F15882341F080912D
:102B20005202982F909590FB80F98093520289E38E
:102B30000E940F15882359F08091520281FB2227B1
:102B400020F991E0922790FB81F98093520282EE66
:102B50000E940F15882359F08091520282FB222790
:102B600020F991E0922790FB82F98093520286EE41
:102B70000E940F15882359F08091520283FB22276F
:102B800020F991E0922790FB83F98093520283EE23
:102B90000E940F15882359F08091520284FB22274E
:102BA00020F991E0922790FB84F98093520285E30B
:102BB0000E940F15882359F08091520285FB22272D
:102BC00020F991E0922790FB85F98093520281E3EE
:102BD0000E940F15882359F08091520286FB22270C
:102BE00020F991E0922790FB86F98093520281E1CF
:102BF0000E940F15882359F08091520287FB2227EB
:102C000020F991E0922790FB87F9809352028091FE
:102C100052020E94D21387E20E940F15C82F8EE144
:102C20000E940F158111C2608FE10E940F15811162
:102C3000C46080E20E940F158111C86081E20E9489
:102C40000F158111C06182E20E940F158111C062CF
:102C500083E20E940F158111C06484E20E940F1567
:102C6000882311F0C06802C0CC2329F08C2F0E9469
:102C7000C9136C2F03C00E94C513682F70E080E059
:102C800090E0CF910C94A510CF91089580914B02C4
:102C9000089508950F931F93CF93DF9300D01F9251
:102CA000CDB7DEB78C010E948818823011F08430D5
:102CB00021F583E089831B830A8382E08093E90006
:102CC0008FEF9091E800815095FD06C095ED9A95A3
:102CD000F1F700008111F5CF8091E80085FF0DC06C
:102CE00040E050E063E070E0CE0101960E94A5183C
:102CF0008091E8008E778093E8000F900F900F90FE
:102D0000DF91CF911F910F910895CF93DF9300D062
:102D10001F92CDB7DEB720915802243029F522E06A
:102D20002983805891099B838A832093E9008FEF40
:102D30009091E800815095FD06C095ED9A95F1F7C8
:102D400000008111F5CF8091E80085FF0DC040E0C3
:102D500050E063E070E0CE0101960E94A5188091DA
:102D6000E8008E778093E8000F900F900F90DF912E
:102D7000CF910895CF93DF93EC010E9488188230A1
:102D800019F0843009F047C080910C018823E1F0EC
:102D90008091520287FF18C083E08093E9008FEF93
:102DA0009091E800815095FD06C095E19A95F1F764
:102DB00000008111F5CF8091E80085FF2CC040E034
:102DC00050E060E270E017C081E08093E9008FEF8F
:102DD0009091E800815095FD06C095ED9A95F1F728
:102DE00000008111F5CF8091E80085FF14C040E01C
:102DF00050E068E070E0CE010E94A5188091E800E4
:102E00008E778093E80080E2FE01ABE2B2E00190B1
:102E10000D928A95E1F7DF91CF9108958091570245
:102E2000811109C00E943A1A0E94971A8091E2000B
:102E300084608093E20008951092570208950895E7
:102E400008950C941C1442E061EC81E00E94B419D6
:102E500042E061EC82E00E94B41942E261EC83E05E
:102E60000C94B41980915A02833009F455C030F49F
:102E7000813071F0823009F48EC008958A3009F4EF
:102E80007AC08B3009F460C0893009F09CC020C042
:102E900080915902813A09F096C08091E800877FBD
:102EA0008093E80080915D0290915E02892B21F46D
:102EB00060E28BE292E003C060E080E090E070E0CE
:102EC0000E94F0188091E8008B778093E8000895C5
:102ED00080915902813209F076C080915D02909113
:102EE0005E02009719F0029709F06DC08091E8002A
:102EF000877F8093E8008091E80082FD05C0809183
:102F000058028111F8CF5FC08091F10080934B028D
:102F10008091E8008B7753C080915902813A09F083
:102F200052C080915D0290915E02892B09F04BC0E6
:102F30008091E800877F8093E8008091E80080FF1F
:102F4000FCCF80910C0136C0809159028132D9F5B5
:102F500080915D0290915E02892BA9F58091E80035
:102F6000877F8093E8000E94E91980915B0280933B
:102F70000C010C94DE0C80915902813221F5809174
:102F8000E800877F8093E8000E94E91980915C0245
:102F900080934C02089580915902813AA1F4809166
:102FA000E800877F8093E8008091E80080FFFCCFF5
:102FB00080914C028093F1008091E8008E7780939D
:102FC000E8000C94E919089584B7877F84BF0FB691
:102FD000F894A895809160008861809360001092B9
:102FE00060000FBE80E880936100109261000E9433
:102FF00052080E943A1A0E94971A8091E200846057
:103000008093E20078940E941D1D0E94540882E083
:1030100091E00E94090880915802853069F40E946D
:10302000D713809156028823B1F30E940514882398
:1030300091F30E948F18EFCF0E945A08ECCF292FEE
:10304000332723303105C9F064F42130310581F094
:103050002230310509F043C084E590E023E234E0FA
:1030600042C021323105F1F02232310541F137C041
:1030700082E190E027E734E036C09927813091055E
:1030800041F08230910541F0892B49F5EFE1F4E000
:1030900005C0EFE0F4E002C0EBEFF3E0849190E0D4
:1030A0009F0121C06330D8F4E62FF0E0EE0FFF1F40
:1030B000E45DFE4F2081318189E090E014C06330EF
:1030C00070F470E0FB01EE0FFF1FEA5DFE4F208100
:1030D0003181FB01ED5DFE4F808190E004C080E016
:1030E00090E020E030E0FA013183208308950895D4
:1030F000CF93C82F0E947718C0934D02CF910895A7
:1031000080915802843011F081E0089582E00895A2
:1031100080914D02811102C00C948018089580E1C5
:1031200089BD82E189BD09B400FEFDCF8091D80040
:103130008F7D8093D8008091E00082608093E000D2
:103140008091E00081FDFCCF0895CF92DF92EF9255
:10315000FF920F931F93CF93DF93EC018B016A01D2
:103160000E94081A811133C0C114D10439F0F6014C
:1031700080819181081B190BC80FD91FE12CF12CFC
:103180000115110519F18091E80085FD16C08091A7
:10319000E8008E778093E800C114D10449F0F6016D
:1031A00080819181E80EF91EF182E08285E00FC0F6
:1031B0000E94081A882321F30AC089918093F100A4
:1031C00001501109FFEFEF1AFF0ADACF80E0DF911B
:1031D000CF911F910F91FF90EF90DF90CF900895C6
:1031E00020915F02309160022617370748F0611581
:1031F000710539F42091E8002E772093E80001C092
:10320000B90140E061157105A9F12091580222230E
:1032100009F443C0253009F442C02091E80023FDA1
:1032200040C02091E80022FD32C02091E80020FF3C
:10323000E9CF4091F3002091F20030E0342BFC0103
:10324000CF016115710559F02830310540F48191A5
:103250008093F100615071092F5F3F4FF1CF41E042
:103260002830310509F040E02091E8002E772093C6
:10327000E800C8CF4111C9CF0AC080915802882305
:1032800061F0853061F08091E80083FD0AC0809193
:10329000E80082FFF2CF80E0089582E0089583E0A5
:1032A000089581E0089520915F0230916002261711
:1032B000370748F06115710539F42091E8002E7741
:1032C0002093E80001C0B901FC0120E061157105FF
:1032D00091F180915802882309F440C0853009F4A7
:1032E0003FC08091E80083FD3DC08091E80082FDF1
:1032F0002FC08091E80080FFE9CF2091F3008091FA
:10330000F20090E0922B6115710559F0883091051B
:1033100040F424912093F100319661507109019697
:10332000F2CF21E0089709F020E08091E8008E7745
:103330008093E800CBCF2111CCCF0AC080915802F6
:10334000882361F0853061F08091E80083FD0AC038
:103350008091E80082FFF2CF80E0089582E0089536
:1033600083E0089581E00895982F973058F5909361
:10337000E900981739F07091EC002091ED00509120
:10338000F00003C0242F762F50E021FF19C03091A8
:10339000EB003E7F3093EB003091ED003D7F3093AA
:1033A000ED003091EB0031603093EB007093EC0056
:1033B0002093ED005093F0002091EE0027FF07C00E
:1033C0009F5FD3CF8F708093E90081E0089580E004
:1033D00008958091590287FF11C08091E80082FD15
:1033E00005C0809158028111F8CF11C08091E8008A
:1033F0008B770BC080915802882349F08091E800B8
:1034000080FFF8CF8091E8008E778093E8000895E0
:103410002091E4003091E50095E64091EC00842F86
:10342000817040FF22C08091E80080FD1CC0809127
:103430005802882391F0853091F08091EB0085FD52
:1034400010C04091E4005091E5004217530729F362
:103450009A01915011F784E0089582E0089583E085
:10346000089581E0089580E008954091E80042FFCA
:10347000DECF08950E94A81A0E94B01AE0EEF0E094
:10348000808181608083E8EDF0E080818F778083A8
:1034900019BCA7EDB0E08C918E7F8C9380818F7EDC
:1034A00080831092570208950F931F93CF93DF9359
:1034B0000E94A81A0E94B01AC8EDD0E088818F77C8
:1034C000888388818068888388818F7D888319BC00
:1034D0001092580210925402109256021092550205
:1034E00000EE10E0F80180818B7F8083888181600D
:1034F000888342E060E080E00E94B419E1EEF0E0F1
:1035000080818E7F8083E2EEF0E080818160808325
:10351000808188608083F80180818E7F80838881AC
:1035200080618883DF91CF911F910F910895E8ED1D
:10353000F0E080818F7E8083E7EDF0E08081816024
:10354000808384E082BF81E0809357020C94541AF8
:10355000E8EDF0E080818E7F80831092E200089594
:103560001092DA001092E10008951F920F920FB6A8
:103570000F9211242F933F934F935F936F937F93F9
:103580008F939F93AF93BF93EF93FF938091E1004D
:1035900082FF0BC08091E20082FF07C08091E100B2
:1035A0008B7F8093E1000E941C1D8091DA0080FFD8
:1035B0001FC08091D80080FF1BC08091DA008E7FF1
:1035C0008093DA008091D90080FF0DC080E189BD31
:1035D00082E189BD09B400FEFDCF81E080935802ED
:1035E0000E940E1705C019BC109258020E941C17A9
:1035F0008091E10080FF19C08091E20080FF15C03A
:103600008091E2008E7F8093E2008091E2008061F1
:103610008093E2008091D80080628093D80019BC2A
:1036200085E0809358020E9420178091E10084FF7A
:1036300030C08091E20084FF2CC080E189BD82E12E
:1036400089BD09B400FEFDCF8091D8008F7D8093A5
:10365000D8008091E1008F7E8093E1008091E200AC
:103660008F7E8093E2008091E20081608093E2008F
:1036700080915402882311F084E007C08091E30018
:1036800087FD02C081E001C083E0809358020E9460
:1036900021178091E10083FF29C08091E20083FF20
:1036A00025C08091E100877F8093E10082E08093D4
:1036B0005802109254028091E1008E7F8093E100C5
:1036C0008091E2008E7F8093E2008091E200806131
:1036D0008093E20042E060E080E00E94B4198091B3
:1036E000F00088608093F0000E941F17FF91EF9117
:1036F000BF91AF919F918F917F916F915F914F910A
:103700003F912F910F900FBE0F901F9018951F9211
:103710000F920FB60F9211242F933F934F935F9305
:103720006F937F938F939F93AF93BF93CF93DF93C9
:10373000EF93FF93C091E900CF708091EC00D82FF8
:10374000D17080FDD0E81092E9008091F000877F71
:103750008093F00078940E94CB1B1092E900809136
:10376000F00088608093F000CD2BCF70C093E9000B
:10377000FF91EF91DF91CF91BF91AF919F918F9189
:103780007F916F915F914F913F912F910F900FBE5D
:103790000F901F9018951F93CF93DF93CDB7DEB78F
:1037A000AA970FB6F894DEBF0FBECDBFE9E5F2E0F1
:1037B00088E08E0F9091F10091938E13FBCF0E94C1
:1037C00032178091E80083FF1FC1809159029091C8
:1037D0005A02492F50E04A30510508F015C1FA014C
:1037E000E556FF4F0C94381D803881F0823809F07F
:1037F0000BC180915D028F708093E9008091EB0096
:1038000085FB882780F91092E90006C08091550257
:1038100090915602911182609091E800977F909369
:10382000E8008093F1001092F100C8C0282F2D7F8E
:1038300009F0EAC0882319F0823061F0E5C0809178
:103840005B02813009F0E0C0933009F080E08093A2
:1038500056022BC080915B02811127C080915D02CE
:103860008F7009F4D1C08093E9002091EB0020FF14
:103870001CC0933021F48091EB00806214C09091C1
:10388000EB0090619093EB0021E030E0A90102C0D1
:10389000440F551F8A95E2F74093EA001092EA0020
:1038A0008091EB0088608093EB001092E90080919A
:1038B000E800877F86C08111A7C010915B021F7747
:1038C0008091E3008078812B8093E3008091E80071
:1038D000877F8093E8000E94E9198091E80080FFCB
:1038E000FCCF8091E30080688093E300111102C057
:1038F00082E001C083E08093580286C08058823005
:1039000008F082C080915B0290915C028C3D53E094
:10391000950779F583E08A838AE289834FB7F89423
:10392000DE01139620E03EE051E2E32FF0E05093F9
:103930005700E49120FF03C0E295EF703F5FEF7006
:103940008E2F90E0EA3010F0C79601C0C0968D939C
:103950009D932F5F243149F74FBF8091E800877F07
:103960008093E8006AE270E0CE0101960E94F018B0
:1039700014C0AE014F5F5F4F60915D020E941F183F
:10398000BC01892B09F440C09091E800977F909387
:10399000E80089819A810E9453198091E8008B7711
:1039A0008093E80031C0803879F58091E800877F06
:1039B0008093E800809154028093F1008091E800A8
:1039C0008E778093E8000E94E9191EC081111CC007
:1039D00090915B029230C0F48091E800877F8093E1
:1039E000E800909354020E94E919809154028111D9
:1039F00006C08091E30087FD02C081E001C084E041
:103A0000809358020E9423178091E80083FF0AC028
:103A10008091E800877F8093E8008091EB008062CE
:103A20008093EB00AA960FB6F894DEBF0FBECDBF11
:103A3000DF91CF911F9108950895CF9380915802FF
:103A40008823A1F0C091E900CF709091EC00892FFC
:103A5000817090FD80E8C82B1092E9008091E80009
:103A600083FD0E94CB1BCF70C093E900CF910895D6
:103A7000EE0FFF1F0590F491E02D0994F999FECF08
:103A800092BD81BDF89A992780B50895A8E1B0E06C
:103A900042E050E00C94661D262FF999FECF92BDAE
:103AA00081BDF89A019700B4021639F01FBA20BD03
:103AB0000FB6F894FA9AF99A0FBE08950196272F37
:103AC0000E944D1D0C944C1DDC01CB01FC01F999A9
:103AD000FECF06C0F2BDE1BDF89A319600B40D925A
:0C3AE00041505040B8F70895F894FFCF13
:103AEC0006024616BA16491685164A160191929385
:103AFC006667959497343536F7F6F5F4F1F0313274
:103B0C00333790403639F804C204890435044E0426
:023B1C0067043C
:00000001FF
